{
  "_format": "hh-sol-artifact-1",
  "contractName": "BuyMeCoffee",
  "sourceName": "contracts/BuyMeCoffee.sol",
  "abi": [
    {
      "inputs": [],
      "stateMutability": "nonpayable",
      "type": "constructor"
    },
    {
      "inputs": [
        {
          "internalType": "string",
          "name": "name",
          "type": "string"
        },
        {
          "internalType": "string",
          "name": "message",
          "type": "string"
        }
      ],
      "name": "buyCoffe",
      "outputs": [],
      "stateMutability": "payable",
      "type": "function"
    },
    {
      "inputs": [],
      "name": "getMemos",
      "outputs": [
        {
          "components": [
            {
              "internalType": "string",
              "name": "name",
              "type": "string"
            },
            {
              "internalType": "string",
              "name": "message",
              "type": "string"
            },
            {
              "internalType": "uint256",
              "name": "timestamp",
              "type": "uint256"
            },
            {
              "internalType": "address",
              "name": "from",
              "type": "address"
            }
          ],
          "internalType": "struct BuyMeCoffee.Memo[]",
          "name": "",
          "type": "tuple[]"
        }
      ],
      "stateMutability": "view",
      "type": "function"
    }
  ],
  "bytecode": "0x60a060405234801561001057600080fd5b503373ffffffffffffffffffffffffffffffffffffffff1660808173ffffffffffffffffffffffffffffffffffffffff1681525050608051610c7161005f600039600060bc0152610c716000f3fe6080604052600436106100295760003560e01c80630b96ef831461002e578063865c51721461004a575b600080fd5b61004860048036038101906100439190610546565b610075565b005b34801561005657600080fd5b5061005f6102f4565b60405161006c91906107dd565b60405180910390f35b600034116100b8576040517f08c379a00000000000000000000000000000000000000000000000000000000081526004016100af9061085c565b60405180910390fd5b60007f000000000000000000000000000000000000000000000000000000000000000073ffffffffffffffffffffffffffffffffffffffff16346040516100fe906108ad565b60006040518083038185875af1925050503d806000811461013b576040519150601f19603f3d011682016040523d82523d6000602084013e610140565b606091505b5050905080610184576040517f08c379a000000000000000000000000000000000000000000000000000000000815260040161017b9061090e565b60405180910390fd5b6000604051806080016040528087878080601f016020809104026020016040519081016040528093929190818152602001838380828437600081840152601f19601f82011690508083019250505050505050815260200185858080601f016020809104026020016040519081016040528093929190818152602001838380828437600081840152601f19601f8201169050808301925050505050505081526020014281526020013373ffffffffffffffffffffffffffffffffffffffff16815250908060018154018082558091505060019003906000526020600020906004020160009091909190915060008201518160000190816102839190610b69565b5060208201518160010190816102999190610b69565b506040820151816002015560608201518160030160006101000a81548173ffffffffffffffffffffffffffffffffffffffff021916908373ffffffffffffffffffffffffffffffffffffffff16021790555050505050505050565b60606000805480602002602001604051908101604052809291908181526020016000905b828210156104ce578382906000526020600020906004020160405180608001604052908160008201805461034b9061098c565b80601f01602080910402602001604051908101604052809291908181526020018280546103779061098c565b80156103c45780601f10610399576101008083540402835291602001916103c4565b820191906000526020600020905b8154815290600101906020018083116103a757829003601f168201915b505050505081526020016001820180546103dd9061098c565b80601f01602080910402602001604051908101604052809291908181526020018280546104099061098c565b80156104565780601f1061042b57610100808354040283529160200191610456565b820191906000526020600020905b81548152906001019060200180831161043957829003601f168201915b50505050508152602001600282015481526020016003820160009054906101000a900473ffffffffffffffffffffffffffffffffffffffff1673ffffffffffffffffffffffffffffffffffffffff1673ffffffffffffffffffffffffffffffffffffffff168152505081526020019060010190610318565b50505050905090565b600080fd5b600080fd5b600080fd5b600080fd5b600080fd5b60008083601f840112610506576105056104e1565b5b8235905067ffffffffffffffff811115610523576105226104e6565b5b60208301915083600182028301111561053f5761053e6104eb565b5b9250929050565b600080600080604085870312156105605761055f6104d7565b5b600085013567ffffffffffffffff81111561057e5761057d6104dc565b5b61058a878288016104f0565b9450945050602085013567ffffffffffffffff8111156105ad576105ac6104dc565b5b6105b9878288016104f0565b925092505092959194509250565b600081519050919050565b600082825260208201905092915050565b6000819050602082019050919050565b600081519050919050565b600082825260208201905092915050565b60005b8381101561062d578082015181840152602081019050610612565b60008484015250505050565b6000601f19601f8301169050919050565b6000610655826105f3565b61065f81856105fe565b935061066f81856020860161060f565b61067881610639565b840191505092915050565b6000819050919050565b61069681610683565b82525050565b600073ffffffffffffffffffffffffffffffffffffffff82169050919050565b60006106c78261069c565b9050919050565b6106d7816106bc565b82525050565b600060808301600083015184820360008601526106fa828261064a565b91505060208301518482036020860152610714828261064a565b9150506040830151610729604086018261068d565b50606083015161073c60608601826106ce565b508091505092915050565b600061075383836106dd565b905092915050565b6000602082019050919050565b6000610773826105c7565b61077d81856105d2565b93508360208202850161078f856105e3565b8060005b858110156107cb57848403895281516107ac8582610747565b94506107b78361075b565b925060208a01995050600181019050610793565b50829750879550505050505092915050565b600060208201905081810360008301526107f78184610768565b905092915050565b600082825260208201905092915050565b7f53656e6420657468206d6f72657468616e203000000000000000000000000000600082015250565b60006108466013836107ff565b915061085182610810565b602082019050919050565b6000602082019050818103600083015261087581610839565b9050919050565b600081905092915050565b50565b600061089760008361087c565b91506108a282610887565b600082019050919050565b60006108b88261088a565b9150819050919050565b7f6661696c656420746f2073656e64000000000000000000000000000000000000600082015250565b60006108f8600e836107ff565b9150610903826108c2565b602082019050919050565b60006020820190508181036000830152610927816108eb565b9050919050565b7f4e487b7100000000000000000000000000000000000000000000000000000000600052604160045260246000fd5b7f4e487b7100000000000000000000000000000000000000000000000000000000600052602260045260246000fd5b600060028204905060018216806109a457607f821691505b6020821081036109b7576109b661095d565b5b50919050565b60008190508160005260206000209050919050565b60006020601f8301049050919050565b600082821b905092915050565b600060088302610a1f7fffffffffffffffffffffffffffffffffffffffffffffffffffffffffffffffff826109e2565b610a2986836109e2565b95508019841693508086168417925050509392505050565b6000819050919050565b6000610a66610a61610a5c84610683565b610a41565b610683565b9050919050565b6000819050919050565b610a8083610a4b565b610a94610a8c82610a6d565b8484546109ef565b825550505050565b600090565b610aa9610a9c565b610ab4818484610a77565b505050565b5b81811015610ad857610acd600082610aa1565b600181019050610aba565b5050565b601f821115610b1d57610aee816109bd565b610af7846109d2565b81016020851015610b06578190505b610b1a610b12856109d2565b830182610ab9565b50505b505050565b600082821c905092915050565b6000610b4060001984600802610b22565b1980831691505092915050565b6000610b598383610b2f565b9150826002028217905092915050565b610b72826105f3565b67ffffffffffffffff811115610b8b57610b8a61092e565b5b610b95825461098c565b610ba0828285610adc565b600060209050601f831160018114610bd35760008415610bc1578287015190505b610bcb8582610b4d565b865550610c33565b601f198416610be1866109bd565b60005b82811015610c0957848901518255600182019150602085019450602081019050610be4565b86831015610c265784890151610c22601f891682610b2f565b8355505b6001600288020188555050505b50505050505056fea26469706673582212202a2fed68ac340207b3ba19eb515c5742f8bfe9271aef8119bec1bff5326c4ae164736f6c63430008180033",
  "linkReferences": {},
  "deployedLinkReferences": {}
}